{
  "_format": "hh-sol-artifact-1",
  "contractName": "OnChainNFT",
  "sourceName": "contracts/OnchainNFT.sol",
  "abi": [
    {
      "inputs": [],
      "stateMutability": "nonpayable",
      "type": "constructor"
    },
    {
      "inputs": [
        {
          "internalType": "address",
          "name": "sender",
          "type": "address"
        },
        {
          "internalType": "uint256",
          "name": "tokenId",
          "type": "uint256"
        },
        {
          "internalType": "address",
          "name": "owner",
          "type": "address"
        }
      ],
      "name": "ERC721IncorrectOwner",
      "type": "error"
    },
    {
      "inputs": [
        {
          "internalType": "address",
          "name": "operator",
          "type": "address"
        },
        {
          "internalType": "uint256",
          "name": "tokenId",
          "type": "uint256"
        }
      ],
      "name": "ERC721InsufficientApproval",
      "type": "error"
    },
    {
      "inputs": [
        {
          "internalType": "address",
          "name": "approver",
          "type": "address"
        }
      ],
      "name": "ERC721InvalidApprover",
      "type": "error"
    },
    {
      "inputs": [
        {
          "internalType": "address",
          "name": "operator",
          "type": "address"
        }
      ],
      "name": "ERC721InvalidOperator",
      "type": "error"
    },
    {
      "inputs": [
        {
          "internalType": "address",
          "name": "owner",
          "type": "address"
        }
      ],
      "name": "ERC721InvalidOwner",
      "type": "error"
    },
    {
      "inputs": [
        {
          "internalType": "address",
          "name": "receiver",
          "type": "address"
        }
      ],
      "name": "ERC721InvalidReceiver",
      "type": "error"
    },
    {
      "inputs": [
        {
          "internalType": "address",
          "name": "sender",
          "type": "address"
        }
      ],
      "name": "ERC721InvalidSender",
      "type": "error"
    },
    {
      "inputs": [
        {
          "internalType": "uint256",
          "name": "tokenId",
          "type": "uint256"
        }
      ],
      "name": "ERC721NonexistentToken",
      "type": "error"
    },
    {
      "anonymous": false,
      "inputs": [
        {
          "indexed": true,
          "internalType": "address",
          "name": "owner",
          "type": "address"
        },
        {
          "indexed": true,
          "internalType": "address",
          "name": "approved",
          "type": "address"
        },
        {
          "indexed": true,
          "internalType": "uint256",
          "name": "tokenId",
          "type": "uint256"
        }
      ],
      "name": "Approval",
      "type": "event"
    },
    {
      "anonymous": false,
      "inputs": [
        {
          "indexed": true,
          "internalType": "address",
          "name": "owner",
          "type": "address"
        },
        {
          "indexed": true,
          "internalType": "address",
          "name": "operator",
          "type": "address"
        },
        {
          "indexed": false,
          "internalType": "bool",
          "name": "approved",
          "type": "bool"
        }
      ],
      "name": "ApprovalForAll",
      "type": "event"
    },
    {
      "anonymous": false,
      "inputs": [
        {
          "indexed": false,
          "internalType": "uint256",
          "name": "_fromTokenId",
          "type": "uint256"
        },
        {
          "indexed": false,
          "internalType": "uint256",
          "name": "_toTokenId",
          "type": "uint256"
        }
      ],
      "name": "BatchMetadataUpdate",
      "type": "event"
    },
    {
      "anonymous": false,
      "inputs": [
        {
          "indexed": false,
          "internalType": "uint256",
          "name": "_tokenId",
          "type": "uint256"
        }
      ],
      "name": "MetadataUpdate",
      "type": "event"
    },
    {
      "anonymous": false,
      "inputs": [
        {
          "indexed": true,
          "internalType": "address",
          "name": "from",
          "type": "address"
        },
        {
          "indexed": true,
          "internalType": "address",
          "name": "to",
          "type": "address"
        },
        {
          "indexed": true,
          "internalType": "uint256",
          "name": "tokenId",
          "type": "uint256"
        }
      ],
      "name": "Transfer",
      "type": "event"
    },
    {
      "inputs": [
        {
          "internalType": "address",
          "name": "to",
          "type": "address"
        },
        {
          "internalType": "uint256",
          "name": "tokenId",
          "type": "uint256"
        }
      ],
      "name": "approve",
      "outputs": [],
      "stateMutability": "nonpayable",
      "type": "function"
    },
    {
      "inputs": [
        {
          "internalType": "address",
          "name": "owner",
          "type": "address"
        }
      ],
      "name": "balanceOf",
      "outputs": [
        {
          "internalType": "uint256",
          "name": "",
          "type": "uint256"
        }
      ],
      "stateMutability": "view",
      "type": "function"
    },
    {
      "inputs": [
        {
          "internalType": "uint256",
          "name": "tokenId",
          "type": "uint256"
        }
      ],
      "name": "getApproved",
      "outputs": [
        {
          "internalType": "address",
          "name": "",
          "type": "address"
        }
      ],
      "stateMutability": "view",
      "type": "function"
    },
    {
      "inputs": [
        {
          "internalType": "address",
          "name": "owner",
          "type": "address"
        },
        {
          "internalType": "address",
          "name": "operator",
          "type": "address"
        }
      ],
      "name": "isApprovedForAll",
      "outputs": [
        {
          "internalType": "bool",
          "name": "",
          "type": "bool"
        }
      ],
      "stateMutability": "view",
      "type": "function"
    },
    {
      "inputs": [],
      "name": "mint",
      "outputs": [],
      "stateMutability": "nonpayable",
      "type": "function"
    },
    {
      "inputs": [],
      "name": "name",
      "outputs": [
        {
          "internalType": "string",
          "name": "",
          "type": "string"
        }
      ],
      "stateMutability": "view",
      "type": "function"
    },
    {
      "inputs": [
        {
          "internalType": "uint256",
          "name": "tokenId",
          "type": "uint256"
        }
      ],
      "name": "ownerOf",
      "outputs": [
        {
          "internalType": "address",
          "name": "",
          "type": "address"
        }
      ],
      "stateMutability": "view",
      "type": "function"
    },
    {
      "inputs": [
        {
          "internalType": "address",
          "name": "from",
          "type": "address"
        },
        {
          "internalType": "address",
          "name": "to",
          "type": "address"
        },
        {
          "internalType": "uint256",
          "name": "tokenId",
          "type": "uint256"
        }
      ],
      "name": "safeTransferFrom",
      "outputs": [],
      "stateMutability": "nonpayable",
      "type": "function"
    },
    {
      "inputs": [
        {
          "internalType": "address",
          "name": "from",
          "type": "address"
        },
        {
          "internalType": "address",
          "name": "to",
          "type": "address"
        },
        {
          "internalType": "uint256",
          "name": "tokenId",
          "type": "uint256"
        },
        {
          "internalType": "bytes",
          "name": "data",
          "type": "bytes"
        }
      ],
      "name": "safeTransferFrom",
      "outputs": [],
      "stateMutability": "nonpayable",
      "type": "function"
    },
    {
      "inputs": [
        {
          "internalType": "address",
          "name": "operator",
          "type": "address"
        },
        {
          "internalType": "bool",
          "name": "approved",
          "type": "bool"
        }
      ],
      "name": "setApprovalForAll",
      "outputs": [],
      "stateMutability": "nonpayable",
      "type": "function"
    },
    {
      "inputs": [
        {
          "internalType": "bytes4",
          "name": "interfaceId",
          "type": "bytes4"
        }
      ],
      "name": "supportsInterface",
      "outputs": [
        {
          "internalType": "bool",
          "name": "",
          "type": "bool"
        }
      ],
      "stateMutability": "view",
      "type": "function"
    },
    {
      "inputs": [],
      "name": "symbol",
      "outputs": [
        {
          "internalType": "string",
          "name": "",
          "type": "string"
        }
      ],
      "stateMutability": "view",
      "type": "function"
    },
    {
      "inputs": [
        {
          "internalType": "uint256",
          "name": "tokenId",
          "type": "uint256"
        }
      ],
      "name": "tokenURI",
      "outputs": [
        {
          "internalType": "string",
          "name": "",
          "type": "string"
        }
      ],
      "stateMutability": "view",
      "type": "function"
    },
    {
      "inputs": [
        {
          "internalType": "address",
          "name": "from",
          "type": "address"
        },
        {
          "internalType": "address",
          "name": "to",
          "type": "address"
        },
        {
          "internalType": "uint256",
          "name": "tokenId",
          "type": "uint256"
        }
      ],
      "name": "transferFrom",
      "outputs": [],
      "stateMutability": "nonpayable",
      "type": "function"
    }
  ],
  "bytecode": "0x608060405234801561001057600080fd5b506040518060400160405280600a81526020017f4f6e436861696e4e4654000000000000000000000000000000000000000000008152506040518060400160405280600581526020017f4f434e4654000000000000000000000000000000000000000000000000000000815250816000908161008c91906102fc565b50806001908161009c91906102fc565b50505060016007819055506103ce565b600081519050919050565b7f4e487b7100000000000000000000000000000000000000000000000000000000600052604160045260246000fd5b7f4e487b7100000000000000000000000000000000000000000000000000000000600052602260045260246000fd5b6000600282049050600182168061012d57607f821691505b6020821081036101405761013f6100e6565b5b50919050565b60008190508160005260206000209050919050565b60006020601f8301049050919050565b600082821b905092915050565b6000600883026101a87fffffffffffffffffffffffffffffffffffffffffffffffffffffffffffffffff8261016b565b6101b2868361016b565b95508019841693508086168417925050509392505050565b6000819050919050565b6000819050919050565b60006101f96101f46101ef846101ca565b6101d4565b6101ca565b9050919050565b6000819050919050565b610213836101de565b61022761021f82610200565b848454610178565b825550505050565b600090565b61023c61022f565b61024781848461020a565b505050565b5b8181101561026b57610260600082610234565b60018101905061024d565b5050565b601f8211156102b05761028181610146565b61028a8461015b565b81016020851015610299578190505b6102ad6102a58561015b565b83018261024c565b50505b505050565b600082821c905092915050565b60006102d3600019846008026102b5565b1980831691505092915050565b60006102ec83836102c2565b9150826002028217905092915050565b610305826100ac565b67ffffffffffffffff81111561031e5761031d6100b7565b5b6103288254610115565b61033382828561026f565b600060209050601f8311600181146103665760008415610354578287015190505b61035e85826102e0565b8655506103c6565b601f19841661037486610146565b60005b8281101561039c57848901518255600182019150602085019450602081019050610377565b868310156103b957848901516103b5601f8916826102c2565b8355505b6001600288020188555050505b505050505050565b6125b4806103dd6000396000f3fe608060405234801561001057600080fd5b50600436106100ea5760003560e01c80636352211e1161008c578063a22cb46511610066578063a22cb46514610249578063b88d4fde14610265578063c87b56dd14610281578063e985e9c5146102b1576100ea565b80636352211e146101cb57806370a08231146101fb57806395d89b411461022b576100ea565b8063095ea7b3116100c8578063095ea7b31461016d5780631249c58b1461018957806323b872dd1461019357806342842e0e146101af576100ea565b806301ffc9a7146100ef57806306fdde031461011f578063081812fc1461013d575b600080fd5b610109600480360381019061010491906118ea565b6102e1565b6040516101169190611932565b60405180910390f35b610127610342565b60405161013491906119dd565b60405180910390f35b61015760048036038101906101529190611a35565b6103d4565b6040516101649190611aa3565b60405180910390f35b61018760048036038101906101829190611aea565b6103f0565b005b610191610406565b005b6101ad60048036038101906101a89190611b2a565b61043c565b005b6101c960048036038101906101c49190611b2a565b61053e565b005b6101e560048036038101906101e09190611a35565b61055e565b6040516101f29190611aa3565b60405180910390f35b61021560048036038101906102109190611b7d565b610570565b6040516102229190611bb9565b60405180910390f35b61023361062a565b60405161024091906119dd565b60405180910390f35b610263600480360381019061025e9190611c00565b6106bc565b005b61027f600480360381019061027a9190611d75565b6106d2565b005b61029b60048036038101906102969190611a35565b6106f7565b6040516102a891906119dd565b60405180910390f35b6102cb60048036038101906102c69190611df8565b6107d0565b6040516102d89190611932565b60405180910390f35b6000634906490660e01b7bffffffffffffffffffffffffffffffffffffffffffffffffffffffff1916827bffffffffffffffffffffffffffffffffffffffffffffffffffffffff1916148061033b575061033a82610864565b5b9050919050565b60606000805461035190611e67565b80601f016020809104026020016040519081016040528092919081815260200182805461037d90611e67565b80156103ca5780601f1061039f576101008083540402835291602001916103ca565b820191906000526020600020905b8154815290600101906020018083116103ad57829003601f168201915b5050505050905090565b60006103df82610946565b506103e9826109ce565b9050919050565b61040282826103fd610a0b565b610a13565b5050565b6104223360075460405180602001604052806000815250610a25565b6007600081548092919061043590611ec7565b9190505550565b600073ffffffffffffffffffffffffffffffffffffffff168273ffffffffffffffffffffffffffffffffffffffff16036104ae5760006040517f64a0ae920000000000000000000000000000000000000000000000000000000081526004016104a59190611aa3565b60405180910390fd5b60006104c283836104bd610a0b565b610a49565b90508373ffffffffffffffffffffffffffffffffffffffff168173ffffffffffffffffffffffffffffffffffffffff1614610538578382826040517f64283d7b00000000000000000000000000000000000000000000000000000000815260040161052f93929190611f0f565b60405180910390fd5b50505050565b610559838383604051806020016040528060008152506106d2565b505050565b600061056982610946565b9050919050565b60008073ffffffffffffffffffffffffffffffffffffffff168273ffffffffffffffffffffffffffffffffffffffff16036105e35760006040517f89c62b640000000000000000000000000000000000000000000000000000000081526004016105da9190611aa3565b60405180910390fd5b600360008373ffffffffffffffffffffffffffffffffffffffff1673ffffffffffffffffffffffffffffffffffffffff168152602001908152602001600020549050919050565b60606001805461063990611e67565b80601f016020809104026020016040519081016040528092919081815260200182805461066590611e67565b80156106b25780601f10610687576101008083540402835291602001916106b2565b820191906000526020600020905b81548152906001019060200180831161069557829003601f168201915b5050505050905090565b6106ce6106c7610a0b565b8383610c63565b5050565b6106dd84848461043c565b6106f16106e8610a0b565b85858585610dd2565b50505050565b60606107028261055e565b50600061070e83610f83565b60405160200161071e9190611fce565b604051602081830303815290604052905060006040518060400160405280601f81526020017f5468697320696120616e204e46542063726561746564206279204b656e6e790081525090506000610773611051565b905060006107a384848460405160200161078f93929190612192565b604051602081830303815290604052611080565b9050806040516020016107b69190612251565b604051602081830303815290604052945050505050919050565b6000600560008473ffffffffffffffffffffffffffffffffffffffff1673ffffffffffffffffffffffffffffffffffffffff16815260200190815260200160002060008373ffffffffffffffffffffffffffffffffffffffff1673ffffffffffffffffffffffffffffffffffffffff16815260200190815260200160002060009054906101000a900460ff16905092915050565b60007f80ac58cd000000000000000000000000000000000000000000000000000000007bffffffffffffffffffffffffffffffffffffffffffffffffffffffff1916827bffffffffffffffffffffffffffffffffffffffffffffffffffffffff1916148061092f57507f5b5e139f000000000000000000000000000000000000000000000000000000007bffffffffffffffffffffffffffffffffffffffffffffffffffffffff1916827bffffffffffffffffffffffffffffffffffffffffffffffffffffffff1916145b8061093f575061093e826110ad565b5b9050919050565b60008061095283611117565b9050600073ffffffffffffffffffffffffffffffffffffffff168173ffffffffffffffffffffffffffffffffffffffff16036109c557826040517f7e2732890000000000000000000000000000000000000000000000000000000081526004016109bc9190611bb9565b60405180910390fd5b80915050919050565b60006004600083815260200190815260200160002060009054906101000a900473ffffffffffffffffffffffffffffffffffffffff169050919050565b600033905090565b610a208383836001611154565b505050565b610a2f8383611319565b610a44610a3a610a0b565b6000858585610dd2565b505050565b600080610a5584611117565b9050600073ffffffffffffffffffffffffffffffffffffffff168373ffffffffffffffffffffffffffffffffffffffff1614610a9757610a96818486611412565b5b600073ffffffffffffffffffffffffffffffffffffffff168173ffffffffffffffffffffffffffffffffffffffff1614610b2857610ad9600085600080611154565b6001600360008373ffffffffffffffffffffffffffffffffffffffff1673ffffffffffffffffffffffffffffffffffffffff168152602001908152602001600020600082825403925050819055505b600073ffffffffffffffffffffffffffffffffffffffff168573ffffffffffffffffffffffffffffffffffffffff1614610bab576001600360008773ffffffffffffffffffffffffffffffffffffffff1673ffffffffffffffffffffffffffffffffffffffff168152602001908152602001600020600082825401925050819055505b846002600086815260200190815260200160002060006101000a81548173ffffffffffffffffffffffffffffffffffffffff021916908373ffffffffffffffffffffffffffffffffffffffff160217905550838573ffffffffffffffffffffffffffffffffffffffff168273ffffffffffffffffffffffffffffffffffffffff167fddf252ad1be2c89b69c2b068fc378daa952ba7f163c4a11628f55a4df523b3ef60405160405180910390a4809150509392505050565b600073ffffffffffffffffffffffffffffffffffffffff168273ffffffffffffffffffffffffffffffffffffffff1603610cd457816040517f5b08ba18000000000000000000000000000000000000000000000000000000008152600401610ccb9190611aa3565b60405180910390fd5b80600560008573ffffffffffffffffffffffffffffffffffffffff1673ffffffffffffffffffffffffffffffffffffffff16815260200190815260200160002060008473ffffffffffffffffffffffffffffffffffffffff1673ffffffffffffffffffffffffffffffffffffffff16815260200190815260200160002060006101000a81548160ff0219169083151502179055508173ffffffffffffffffffffffffffffffffffffffff168373ffffffffffffffffffffffffffffffffffffffff167f17307eab39ab6107e8899845ad3d59bd9653f200f220920489ca2b5937696c3183604051610dc59190611932565b60405180910390a3505050565b60008373ffffffffffffffffffffffffffffffffffffffff163b1115610f7c578273ffffffffffffffffffffffffffffffffffffffff1663150b7a02868685856040518563ffffffff1660e01b8152600401610e3194939291906122c8565b6020604051808303816000875af1925050508015610e6d57506040513d601f19601f82011682018060405250810190610e6a9190612329565b60015b610ef1573d8060008114610e9d576040519150601f19603f3d011682016040523d82523d6000602084013e610ea2565b606091505b506000815103610ee957836040517f64a0ae92000000000000000000000000000000000000000000000000000000008152600401610ee09190611aa3565b60405180910390fd5b805181602001fd5b63150b7a0260e01b7bffffffffffffffffffffffffffffffffffffffffffffffffffffffff1916817bffffffffffffffffffffffffffffffffffffffffffffffffffffffff191614610f7a57836040517f64a0ae92000000000000000000000000000000000000000000000000000000008152600401610f719190611aa3565b60405180910390fd5b505b5050505050565b606060006001610f92846114d6565b01905060008167ffffffffffffffff811115610fb157610fb0611c4a565b5b6040519080825280601f01601f191660200182016040528015610fe35781602001600182028036833780820191505090505b509050600082602001820190505b600115611046578080600190039150507f3031323334353637383961626364656600000000000000000000000000000000600a86061a8153600a858161103a57611039612356565b5b04945060008503610ff1575b819350505050919050565b6060600060405180610120016040528060e9815260200161245660e99139905061107a81611080565b91505090565b60606110a68260405180606001604052806040815260200161253f604091396001611629565b9050919050565b60007f01ffc9a7000000000000000000000000000000000000000000000000000000007bffffffffffffffffffffffffffffffffffffffffffffffffffffffff1916827bffffffffffffffffffffffffffffffffffffffffffffffffffffffff1916149050919050565b60006002600083815260200190815260200160002060009054906101000a900473ffffffffffffffffffffffffffffffffffffffff169050919050565b808061118d5750600073ffffffffffffffffffffffffffffffffffffffff168273ffffffffffffffffffffffffffffffffffffffff1614155b156112c157600061119d84610946565b9050600073ffffffffffffffffffffffffffffffffffffffff168373ffffffffffffffffffffffffffffffffffffffff161415801561120857508273ffffffffffffffffffffffffffffffffffffffff168173ffffffffffffffffffffffffffffffffffffffff1614155b801561121b575061121981846107d0565b155b1561125d57826040517fa9fbf51f0000000000000000000000000000000000000000000000000000000081526004016112549190611aa3565b60405180910390fd5b81156112bf57838573ffffffffffffffffffffffffffffffffffffffff168273ffffffffffffffffffffffffffffffffffffffff167f8c5be1e5ebec7d5bd14f71427d1e84f3dd0314c0f7b2291e5b200ac8c7c3b92560405160405180910390a45b505b836004600085815260200190815260200160002060006101000a81548173ffffffffffffffffffffffffffffffffffffffff021916908373ffffffffffffffffffffffffffffffffffffffff16021790555050505050565b600073ffffffffffffffffffffffffffffffffffffffff168273ffffffffffffffffffffffffffffffffffffffff160361138b5760006040517f64a0ae920000000000000000000000000000000000000000000000000000000081526004016113829190611aa3565b60405180910390fd5b600061139983836000610a49565b9050600073ffffffffffffffffffffffffffffffffffffffff168173ffffffffffffffffffffffffffffffffffffffff161461140d5760006040517f73c6ac6e0000000000000000000000000000000000000000000000000000000081526004016114049190611aa3565b60405180910390fd5b505050565b61141d8383836117bd565b6114d157600073ffffffffffffffffffffffffffffffffffffffff168373ffffffffffffffffffffffffffffffffffffffff160361149257806040517f7e2732890000000000000000000000000000000000000000000000000000000081526004016114899190611bb9565b60405180910390fd5b81816040517f177e802f0000000000000000000000000000000000000000000000000000000081526004016114c8929190612385565b60405180910390fd5b505050565b600080600090507a184f03e93ff9f4daa797ed6e38ed64bf6a1f0100000000000000008310611534577a184f03e93ff9f4daa797ed6e38ed64bf6a1f010000000000000000838161152a57611529612356565b5b0492506040810190505b6d04ee2d6d415b85acef81000000008310611571576d04ee2d6d415b85acef8100000000838161156757611566612356565b5b0492506020810190505b662386f26fc1000083106115a057662386f26fc10000838161159657611595612356565b5b0492506010810190505b6305f5e10083106115c9576305f5e10083816115bf576115be612356565b5b0492506008810190505b61271083106115ee5761271083816115e4576115e3612356565b5b0492506004810190505b60648310611611576064838161160757611606612356565b5b0492506002810190505b600a8310611620576001810190505b80915050919050565b6060600084510361164b576040518060200160405280600081525090506117b6565b60008261167d57600360028651600461166491906123ae565b61166e91906123f0565b6116789190612424565b6116a4565b60036002865161168d91906123f0565b6116979190612424565b60046116a391906123ae565b5b905060008167ffffffffffffffff8111156116c2576116c1611c4a565b5b6040519080825280601f01601f1916602001820160405280156116f45781602001600182028036833780820191505090505b50905060018501602082018788518901602081018051600082525b8284101561176a576003840193508351603f8160121c168701518653600186019550603f81600c1c168701518653600186019550603f8160061c168701518653600186019550603f811687015186536001860195505061170f565b80825289156117aa5760038c51066001811461178d57600281146117a0576117a8565b603d6001870353603d60028703536117a8565b603d60018703535b505b50505050505080925050505b9392505050565b60008073ffffffffffffffffffffffffffffffffffffffff168373ffffffffffffffffffffffffffffffffffffffff161415801561187557508273ffffffffffffffffffffffffffffffffffffffff168473ffffffffffffffffffffffffffffffffffffffff161480611836575061183584846107d0565b5b8061187457508273ffffffffffffffffffffffffffffffffffffffff1661185c836109ce565b73ffffffffffffffffffffffffffffffffffffffff16145b5b90509392505050565b6000604051905090565b600080fd5b600080fd5b60007fffffffff0000000000000000000000000000000000000000000000000000000082169050919050565b6118c781611892565b81146118d257600080fd5b50565b6000813590506118e4816118be565b92915050565b600060208284031215611900576118ff611888565b5b600061190e848285016118d5565b91505092915050565b60008115159050919050565b61192c81611917565b82525050565b60006020820190506119476000830184611923565b92915050565b600081519050919050565b600082825260208201905092915050565b60005b8381101561198757808201518184015260208101905061196c565b60008484015250505050565b6000601f19601f8301169050919050565b60006119af8261194d565b6119b98185611958565b93506119c9818560208601611969565b6119d281611993565b840191505092915050565b600060208201905081810360008301526119f781846119a4565b905092915050565b6000819050919050565b611a12816119ff565b8114611a1d57600080fd5b50565b600081359050611a2f81611a09565b92915050565b600060208284031215611a4b57611a4a611888565b5b6000611a5984828501611a20565b91505092915050565b600073ffffffffffffffffffffffffffffffffffffffff82169050919050565b6000611a8d82611a62565b9050919050565b611a9d81611a82565b82525050565b6000602082019050611ab86000830184611a94565b92915050565b611ac781611a82565b8114611ad257600080fd5b50565b600081359050611ae481611abe565b92915050565b60008060408385031215611b0157611b00611888565b5b6000611b0f85828601611ad5565b9250506020611b2085828601611a20565b9150509250929050565b600080600060608486031215611b4357611b42611888565b5b6000611b5186828701611ad5565b9350506020611b6286828701611ad5565b9250506040611b7386828701611a20565b9150509250925092565b600060208284031215611b9357611b92611888565b5b6000611ba184828501611ad5565b91505092915050565b611bb3816119ff565b82525050565b6000602082019050611bce6000830184611baa565b92915050565b611bdd81611917565b8114611be857600080fd5b50565b600081359050611bfa81611bd4565b92915050565b60008060408385031215611c1757611c16611888565b5b6000611c2585828601611ad5565b9250506020611c3685828601611beb565b9150509250929050565b600080fd5b600080fd5b7f4e487b7100000000000000000000000000000000000000000000000000000000600052604160045260246000fd5b611c8282611993565b810181811067ffffffffffffffff82111715611ca157611ca0611c4a565b5b80604052505050565b6000611cb461187e565b9050611cc08282611c79565b919050565b600067ffffffffffffffff821115611ce057611cdf611c4a565b5b611ce982611993565b9050602081019050919050565b82818337600083830152505050565b6000611d18611d1384611cc5565b611caa565b905082815260208101848484011115611d3457611d33611c45565b5b611d3f848285611cf6565b509392505050565b600082601f830112611d5c57611d5b611c40565b5b8135611d6c848260208601611d05565b91505092915050565b60008060008060808587031215611d8f57611d8e611888565b5b6000611d9d87828801611ad5565b9450506020611dae87828801611ad5565b9350506040611dbf87828801611a20565b925050606085013567ffffffffffffffff811115611de057611ddf61188d565b5b611dec87828801611d47565b91505092959194509250565b60008060408385031215611e0f57611e0e611888565b5b6000611e1d85828601611ad5565b9250506020611e2e85828601611ad5565b9150509250929050565b7f4e487b7100000000000000000000000000000000000000000000000000000000600052602260045260246000fd5b60006002820490506001821680611e7f57607f821691505b602082108103611e9257611e91611e38565b5b50919050565b7f4e487b7100000000000000000000000000000000000000000000000000000000600052601160045260246000fd5b6000611ed2826119ff565b91507fffffffffffffffffffffffffffffffffffffffffffffffffffffffffffffffff8203611f0457611f03611e98565b5b600182019050919050565b6000606082019050611f246000830186611a94565b611f316020830185611baa565b611f3e6040830184611a94565b949350505050565b600081905092915050565b7f4f6e636861696e4e465420202300000000000000000000000000000000000000600082015250565b6000611f87600d83611f46565b9150611f9282611f51565b600d82019050919050565b6000611fa88261194d565b611fb28185611f46565b9350611fc2818560208601611969565b80840191505092915050565b6000611fd982611f7a565b9150611fe58284611f9d565b915081905092915050565b7f7b226e616d65223a202200000000000000000000000000000000000000000000600082015250565b6000612026600a83611f46565b915061203182611ff0565b600a82019050919050565b7f222c000000000000000000000000000000000000000000000000000000000000600082015250565b6000612072600283611f46565b915061207d8261203c565b600282019050919050565b7f226465736372697074696f6e223a202200000000000000000000000000000000600082015250565b60006120be601083611f46565b91506120c982612088565b601082019050919050565b7f22696d616765223a2022646174613a696d6167652f7376672b786d6c3b62617360008201527f6536342c00000000000000000000000000000000000000000000000000000000602082015250565b6000612130602483611f46565b915061213b826120d4565b602482019050919050565b7f227d000000000000000000000000000000000000000000000000000000000000600082015250565b600061217c600283611f46565b915061218782612146565b600282019050919050565b600061219d82612019565b91506121a98286611f9d565b91506121b482612065565b91506121bf826120b1565b91506121cb8285611f9d565b91506121d682612065565b91506121e182612123565b91506121ed8284611f9d565b91506121f88261216f565b9150819050949350505050565b7f646174613a6170706c69636174696f6e2f6a736f6e3b6261736536342c000000600082015250565b600061223b601d83611f46565b915061224682612205565b601d82019050919050565b600061225c8261222e565b91506122688284611f9d565b915081905092915050565b600081519050919050565b600082825260208201905092915050565b600061229a82612273565b6122a4818561227e565b93506122b4818560208601611969565b6122bd81611993565b840191505092915050565b60006080820190506122dd6000830187611a94565b6122ea6020830186611a94565b6122f76040830185611baa565b8181036060830152612309818461228f565b905095945050505050565b600081519050612323816118be565b92915050565b60006020828403121561233f5761233e611888565b5b600061234d84828501612314565b91505092915050565b7f4e487b7100000000000000000000000000000000000000000000000000000000600052601260045260246000fd5b600060408201905061239a6000830185611a94565b6123a76020830184611baa565b9392505050565b60006123b9826119ff565b91506123c4836119ff565b92508282026123d2816119ff565b915082820484148315176123e9576123e8611e98565b5b5092915050565b60006123fb826119ff565b9150612406836119ff565b925082820190508082111561241e5761241d611e98565b5b92915050565b600061242f826119ff565b915061243a836119ff565b92508261244a57612449612356565b5b82820490509291505056fe3c7376672077696474683d2733303027206865696768743d273330302720786d6c6e733d27687474703a2f2f7777772e77332e6f72672f323030302f737667273e3c726563742077696474683d273130302527206865696768743d2731303025272066696c6c3d27677265656e272f3e3c7465787420783d273530252720793d273530252720666f6e742d73697a653d273234272066696c6c3d2777686974652720646f6d696e616e742d626173656c696e653d276d6964646c652720746578742d616e63686f723d276d6964646c65273e4f6e636861696e4e46543c2f746578743e3c2f7376673e4142434445464748494a4b4c4d4e4f505152535455565758595a6162636465666768696a6b6c6d6e6f707172737475767778797a303132333435363738392b2fa2646970667358221220d7a9a340e259d92864b2675d4173ab3468fccfc5c29075d6c7788c553d48f8f164736f6c634300081c0033",
  "linkReferences": {},
  "deployedLinkReferences": {}
}